{
  "contractName": "BiddingRing",
  "abi": [
    {
      "inputs": [
        {
          "internalType": "uint256",
          "name": "biddingPeriod",
          "type": "uint256"
        },
        {
          "internalType": "uint256",
          "name": "revealingPeriod",
          "type": "uint256"
        }
      ],
      "payable": false,
      "stateMutability": "nonpayable",
      "type": "constructor"
    },
    {
      "constant": true,
      "inputs": [],
      "name": "_biddingPeriod",
      "outputs": [
        {
          "internalType": "uint256",
          "name": "",
          "type": "uint256"
        }
      ],
      "payable": false,
      "stateMutability": "view",
      "type": "function"
    },
    {
      "constant": true,
      "inputs": [],
      "name": "_revealingPeriod",
      "outputs": [
        {
          "internalType": "uint256",
          "name": "",
          "type": "uint256"
        }
      ],
      "payable": false,
      "stateMutability": "view",
      "type": "function"
    },
    {
      "constant": true,
      "inputs": [],
      "name": "endOfBidding",
      "outputs": [
        {
          "internalType": "uint256",
          "name": "",
          "type": "uint256"
        }
      ],
      "payable": false,
      "stateMutability": "view",
      "type": "function"
    },
    {
      "constant": true,
      "inputs": [],
      "name": "endOfRevealing",
      "outputs": [
        {
          "internalType": "uint256",
          "name": "",
          "type": "uint256"
        }
      ],
      "payable": false,
      "stateMutability": "view",
      "type": "function"
    },
    {
      "constant": true,
      "inputs": [
        {
          "internalType": "address",
          "name": "",
          "type": "address"
        }
      ],
      "name": "hashedBidOff",
      "outputs": [
        {
          "internalType": "bytes32",
          "name": "",
          "type": "bytes32"
        }
      ],
      "payable": false,
      "stateMutability": "view",
      "type": "function"
    },
    {
      "constant": true,
      "inputs": [],
      "name": "highBid",
      "outputs": [
        {
          "internalType": "uint256",
          "name": "",
          "type": "uint256"
        }
      ],
      "payable": false,
      "stateMutability": "view",
      "type": "function"
    },
    {
      "constant": true,
      "inputs": [],
      "name": "highBidder",
      "outputs": [
        {
          "internalType": "address",
          "name": "",
          "type": "address"
        }
      ],
      "payable": false,
      "stateMutability": "view",
      "type": "function"
    },
    {
      "constant": true,
      "inputs": [],
      "name": "nonceBid",
      "outputs": [
        {
          "internalType": "uint256",
          "name": "",
          "type": "uint256"
        }
      ],
      "payable": false,
      "stateMutability": "view",
      "type": "function"
    },
    {
      "constant": true,
      "inputs": [],
      "name": "numBidders",
      "outputs": [
        {
          "internalType": "uint256",
          "name": "",
          "type": "uint256"
        }
      ],
      "payable": false,
      "stateMutability": "view",
      "type": "function"
    },
    {
      "constant": false,
      "inputs": [
        {
          "internalType": "bytes32",
          "name": "hashed",
          "type": "bytes32"
        }
      ],
      "name": "bid",
      "outputs": [],
      "payable": true,
      "stateMutability": "payable",
      "type": "function"
    },
    {
      "constant": true,
      "inputs": [],
      "name": "getNumBidders",
      "outputs": [
        {
          "internalType": "uint256",
          "name": "",
          "type": "uint256"
        }
      ],
      "payable": false,
      "stateMutability": "view",
      "type": "function"
    },
    {
      "constant": false,
      "inputs": [
        {
          "internalType": "uint256",
          "name": "amount",
          "type": "uint256"
        },
        {
          "internalType": "uint256",
          "name": "nonce",
          "type": "uint256"
        }
      ],
      "name": "reveal",
      "outputs": [
        {
          "internalType": "address",
          "name": "",
          "type": "address"
        }
      ],
      "payable": false,
      "stateMutability": "nonpayable",
      "type": "function"
    }
  ],
  "bytecode": "0x6080604052600060045533600660006101000a81548173ffffffffffffffffffffffffffffffffffffffff021916908373ffffffffffffffffffffffffffffffffffffffff16021790555034801561005657600080fd5b5060405161070c38038061070c8339818101604052604081101561007957600080fd5b81019080805190602001909291908051906020019092919050505081420160008190555080600054016001819055505050610653806100b96000396000f3fe6080604052600436106100a75760003560e01c8063b6cc986f11610064578063b6cc986f14610237578063b7f8fef514610262578063bd30267a1461028d578063de9698db146102f2578063f0b193b51461031d578063fb4cd8e214610348576100a7565b80630e28fca1146100ac578063221ba917146100d75780632916cb02146101025780633ce123dc1461012d5780639348cef714610184578063957bb1e014610209575b600080fd5b3480156100b857600080fd5b506100c1610373565b6040518082815260200191505060405180910390f35b3480156100e357600080fd5b506100ec610379565b6040518082815260200191505060405180910390f35b34801561010e57600080fd5b5061011761037f565b6040518082815260200191505060405180910390f35b34801561013957600080fd5b50610142610385565b604051808273ffffffffffffffffffffffffffffffffffffffff1673ffffffffffffffffffffffffffffffffffffffff16815260200191505060405180910390f35b34801561019057600080fd5b506101c7600480360360408110156101a757600080fd5b8101908080359060200190929190803590602001909291905050506103ab565b604051808273ffffffffffffffffffffffffffffffffffffffff1673ffffffffffffffffffffffffffffffffffffffff16815260200191505060405180910390f35b6102356004803603602081101561021f57600080fd5b8101908080359060200190929190505050610514565b005b34801561024357600080fd5b5061024c6105e4565b6040518082815260200191505060405180910390f35b34801561026e57600080fd5b506102776105ea565b6040518082815260200191505060405180910390f35b34801561029957600080fd5b506102dc600480360360208110156102b057600080fd5b81019080803573ffffffffffffffffffffffffffffffffffffffff1690602001909291905050506105f0565b6040518082815260200191505060405180910390f35b3480156102fe57600080fd5b50610307610608565b6040518082815260200191505060405180910390f35b34801561032957600080fd5b50610332610612565b6040518082815260200191505060405180910390f35b34801561035457600080fd5b5061035d610618565b6040518082815260200191505060405180910390f35b60015481565b60025481565b60005481565b600660009054906101000a900473ffffffffffffffffffffffffffffffffffffffff1681565b6000600560003373ffffffffffffffffffffffffffffffffffffffff1673ffffffffffffffffffffffffffffffffffffffff1681526020019081526020016000205483836040516020018083815260200182815260200192505050604051602081830303815290604052805190602001201461048f576040517f08c379a000000000000000000000000000000000000000000000000000000000815260040180806020018281038252601f8152602001807f54686973205573657220686173206e6f74206d6164652074686973206269640081525060200191505060405180910390fd5b6008548311156104e9578260088190555033600660006101000a81548173ffffffffffffffffffffffffffffffffffffffff021916908373ffffffffffffffffffffffffffffffffffffffff160217905550816007819055505b600660009054906101000a900473ffffffffffffffffffffffffffffffffffffffff16905092915050565b600054421061058b576040517f08c379a00000000000000000000000000000000000000000000000000000000081526004018080602001828103825260168152602001807f42696464696e6720506572696f64206973206f7665720000000000000000000081525060200191505060405180910390fd5b80600560003373ffffffffffffffffffffffffffffffffffffffff1673ffffffffffffffffffffffffffffffffffffffff1681526020019081526020016000208190555060046000815480929190600101919050555050565b60085481565b60035481565b60056020528060005260406000206000915090505481565b6000600454905090565b60075481565b6004548156fea265627a7a723158209fc98af1a6350f717f25248c15c10c8d6dde43fed03a573f539e5c286d88a37964736f6c63430005100032",
  "source": "pragma solidity >=0.4.25 <0.7.0;\n\n// import \"./VickreyAuction.sol\";\n\ncontract BiddingRing {\n    uint public endOfBidding;\n    uint public endOfRevealing;\n    uint public _biddingPeriod;\n    uint public _revealingPeriod;\n    uint public numBidders = 0;\n    // VickreyAuction public auction;\n\n    constructor (uint biddingPeriod, uint revealingPeriod) public {\n        endOfBidding = now + biddingPeriod;\n        endOfRevealing = endOfBidding + revealingPeriod;\n    }\n\n    mapping(address => bytes32) public hashedBidOff;\n\n    function bid(bytes32 hashed) public payable {\n        require(now < endOfBidding, \"Bidding Period is over\");\n        // bytes32 hashed = keccak256(abi.encodePacked(price, nonce));\n        hashedBidOff[msg.sender] = hashed;\n        numBidders++;\n    }\n\n    function getNumBidders() public view returns(uint) {\n        return numBidders;\n    }\n\n    address public highBidder = msg.sender;\n    uint public nonceBid;\n    uint public highBid;\n\n    function reveal(uint amount, uint nonce) public returns (address) {\n        // Following line must be uncommented\n        // This function should not return anything! It is just for checking\n        // require(now >= endOfBidding && now < endOfRevealing, \"Reveal not performed during reveal period\");\n        // bytes memory encoding = abi.encodePacked(amount, nonce);\n        require(keccak256(abi.encodePacked(amount, nonce)) == hashedBidOff[msg.sender], \"This User has not made this bid\");\n        if (amount > highBid) {\n            highBid = amount;\n            highBidder = msg.sender;\n            nonceBid = nonce;   \n        }\n        return highBidder;\n    }\n\n\n    // function submitToAuction() public {\n    //     require(now > endOfRevealing);\n    //     auction.bid(highBid, nonceBid);\n    // }\n}",
  "sourcePath": "/home/anchit/IIIT/4-1/dtb/vk/contracts/BiddingRing.sol",
  "compiler": {
    "name": "solc",
    "version": "0.5.16+commit.9c3226ce.Emscripten.clang"
  },
  "schemaVersion": "3.2.4",
  "updatedAt": "2020-09-09T07:50:56.716Z",
  "networkType": "ethereum",
  "devdoc": {
    "methods": {}
  },
  "userdoc": {
    "methods": {}
  }
}