{
  "contractName": "VickreyAuction",
  "abi": [
    {
      "inputs": [
        {
          "internalType": "uint256",
          "name": "biddingPeriod",
          "type": "uint256"
        },
        {
          "internalType": "uint256",
          "name": "revealingPeriod",
          "type": "uint256"
        }
      ],
      "payable": false,
      "stateMutability": "nonpayable",
      "type": "constructor"
    },
    {
      "constant": true,
      "inputs": [],
      "name": "endOfBidding",
      "outputs": [
        {
          "internalType": "uint256",
          "name": "",
          "type": "uint256"
        }
      ],
      "payable": false,
      "stateMutability": "view",
      "type": "function"
    },
    {
      "constant": true,
      "inputs": [],
      "name": "endOfRevealing",
      "outputs": [
        {
          "internalType": "uint256",
          "name": "",
          "type": "uint256"
        }
      ],
      "payable": false,
      "stateMutability": "view",
      "type": "function"
    },
    {
      "constant": true,
      "inputs": [
        {
          "internalType": "address",
          "name": "",
          "type": "address"
        }
      ],
      "name": "hashedBidOf",
      "outputs": [
        {
          "internalType": "bytes32",
          "name": "",
          "type": "bytes32"
        }
      ],
      "payable": false,
      "stateMutability": "view",
      "type": "function"
    },
    {
      "constant": true,
      "inputs": [],
      "name": "highBid",
      "outputs": [
        {
          "internalType": "uint256",
          "name": "",
          "type": "uint256"
        }
      ],
      "payable": false,
      "stateMutability": "view",
      "type": "function"
    },
    {
      "constant": true,
      "inputs": [],
      "name": "highBidder",
      "outputs": [
        {
          "internalType": "address",
          "name": "",
          "type": "address"
        }
      ],
      "payable": false,
      "stateMutability": "view",
      "type": "function"
    },
    {
      "constant": true,
      "inputs": [],
      "name": "numBidders",
      "outputs": [
        {
          "internalType": "uint256",
          "name": "",
          "type": "uint256"
        }
      ],
      "payable": false,
      "stateMutability": "view",
      "type": "function"
    },
    {
      "constant": true,
      "inputs": [
        {
          "internalType": "address",
          "name": "",
          "type": "address"
        }
      ],
      "name": "revealed",
      "outputs": [
        {
          "internalType": "bool",
          "name": "",
          "type": "bool"
        }
      ],
      "payable": false,
      "stateMutability": "view",
      "type": "function"
    },
    {
      "constant": true,
      "inputs": [],
      "name": "secondBid",
      "outputs": [
        {
          "internalType": "uint256",
          "name": "",
          "type": "uint256"
        }
      ],
      "payable": false,
      "stateMutability": "view",
      "type": "function"
    },
    {
      "constant": false,
      "inputs": [
        {
          "internalType": "bytes32",
          "name": "hash",
          "type": "bytes32"
        }
      ],
      "name": "bid",
      "outputs": [],
      "payable": true,
      "stateMutability": "payable",
      "type": "function"
    },
    {
      "constant": true,
      "inputs": [],
      "name": "getNumBidders",
      "outputs": [
        {
          "internalType": "uint256",
          "name": "",
          "type": "uint256"
        }
      ],
      "payable": false,
      "stateMutability": "view",
      "type": "function"
    },
    {
      "constant": false,
      "inputs": [
        {
          "internalType": "uint256",
          "name": "amount",
          "type": "uint256"
        },
        {
          "internalType": "uint256",
          "name": "nonce",
          "type": "uint256"
        }
      ],
      "name": "reveal",
      "outputs": [],
      "payable": false,
      "stateMutability": "nonpayable",
      "type": "function"
    }
  ],
  "bytecode": "0x6080604052600060065534801561001557600080fd5b506040516109593803806109598339818101604052604081101561003857600080fd5b8101908080519060200190929190805190602001909291905050508142016001819055508060015401600281905550336000806101000a81548173ffffffffffffffffffffffffffffffffffffffff021916908373ffffffffffffffffffffffffffffffffffffffff1602179055506000809054906101000a900473ffffffffffffffffffffffffffffffffffffffff16600360006101000a81548173ffffffffffffffffffffffffffffffffffffffff021916908373ffffffffffffffffffffffffffffffffffffffff16021790555060006004819055506000600581905550505061082f8061012a6000396000f3fe60806040526004361061009c5760003560e01c80639348cef7116100645780639348cef71461021c578063957bb1e014610261578063a5cf651f1461028f578063b6cc986f146102ba578063de9698db146102e5578063fb4cd8e2146103105761009c565b80630e28fca1146100a1578063142d64ce146100cc57806327c0583f146101315780632916cb021461019a5780633ce123dc146101c5575b600080fd5b3480156100ad57600080fd5b506100b661033b565b6040518082815260200191505060405180910390f35b3480156100d857600080fd5b5061011b600480360360208110156100ef57600080fd5b81019080803573ffffffffffffffffffffffffffffffffffffffff169060200190929190505050610341565b6040518082815260200191505060405180910390f35b34801561013d57600080fd5b506101806004803603602081101561015457600080fd5b81019080803573ffffffffffffffffffffffffffffffffffffffff169060200190929190505050610359565b604051808215151515815260200191505060405180910390f35b3480156101a657600080fd5b506101af610379565b6040518082815260200191505060405180910390f35b3480156101d157600080fd5b506101da61037f565b604051808273ffffffffffffffffffffffffffffffffffffffff1673ffffffffffffffffffffffffffffffffffffffff16815260200191505060405180910390f35b34801561022857600080fd5b5061025f6004803603604081101561023f57600080fd5b8101908080359060200190929190803590602001909291905050506103a5565b005b61028d6004803603602081101561027757600080fd5b81019080803590602001909291905050506105f7565b005b34801561029b57600080fd5b506102a461078a565b6040518082815260200191505060405180910390f35b3480156102c657600080fd5b506102cf610790565b6040518082815260200191505060405180910390f35b3480156102f157600080fd5b506102fa610796565b6040518082815260200191505060405180910390f35b34801561031c57600080fd5b506103256107a0565b6040518082815260200191505060405180910390f35b60025481565b60086020528060005260406000206000915090505481565b60076020528060005260406000206000915054906101000a900460ff1681565b60015481565b600360009054906101000a900473ffffffffffffffffffffffffffffffffffffffff1681565b60015442101580156103b8575060025442105b6103c157600080fd5b600860003373ffffffffffffffffffffffffffffffffffffffff1673ffffffffffffffffffffffffffffffffffffffff16815260200190815260200160002054828260405160200180838152602001828152602001925050506040516020818303038152906040528051906020012014610486576040517f08c379a00000000000000000000000000000000000000000000000000000000081526004018080602001828103825260318152602001806107ca6031913960400191505060405180910390fd5b600760003373ffffffffffffffffffffffffffffffffffffffff1673ffffffffffffffffffffffffffffffffffffffff16815260200190815260200160002060009054906101000a900460ff1615610529576040517f08c379a00000000000000000000000000000000000000000000000000000000081526004018080602001828103825260238152602001806107a76023913960400191505060405180910390fd5b6001600760003373ffffffffffffffffffffffffffffffffffffffff1673ffffffffffffffffffffffffffffffffffffffff16815260200190815260200160002060006101000a81548160ff02191690831515021790555060045482106105e0576004546005819055508160048190555033600360006101000a81548173ffffffffffffffffffffffffffffffffffffffff021916908373ffffffffffffffffffffffffffffffffffffffff1602179055506105f3565b6005548211156105f257816005819055505b5b5050565b600154421061066e576040517f08c379a00000000000000000000000000000000000000000000000000000000081526004018080602001828103825260168152602001807f42696464696e6720706572696f64206973206f7665720000000000000000000081525060200191505060405180910390fd5b6000809054906101000a900473ffffffffffffffffffffffffffffffffffffffff1673ffffffffffffffffffffffffffffffffffffffff163373ffffffffffffffffffffffffffffffffffffffff161415610731576040517f08c379a00000000000000000000000000000000000000000000000000000000081526004018080602001828103825260198152602001807f53656c6c6572206e6f7420616c6c6f77656420746f206269640000000000000081525060200191505060405180910390fd5b80600860003373ffffffffffffffffffffffffffffffffffffffff1673ffffffffffffffffffffffffffffffffffffffff1681526020019081526020016000208190555060066000815480929190600101919050555050565b60055481565b60045481565b6000600654905090565b6006548156fe4269646465722068617320616c72656164792072657665616c656420746865206269644e6f20646174612070726573656e7420666f7220746869732073656c6c6572207769746820676976656e20616d6f756e74a265627a7a72315820ba7c03ab08578dfac463c8730eda3bc12bd7d3c6becd29536b90661b1754d53364736f6c63430005100032",
  "source": "pragma solidity >=0.4.25 <0.7.0;\n\n\ncontract VickreyAuction {\n    address seller;\n\n    uint public endOfBidding;\n    uint public endOfRevealing;\n\n    address public highBidder;\n    uint public highBid;\n    uint public secondBid;\n    uint public numBidders = 0;\n\n    mapping(address => bool) public revealed;\n\n    constructor (uint biddingPeriod, uint revealingPeriod) public {\n        endOfBidding = now + biddingPeriod;\n        endOfRevealing = endOfBidding + revealingPeriod;\n        seller = msg.sender;\n        highBidder = seller;\n        highBid = 0;\n        secondBid = 0;\n    }\n\n    mapping(address => bytes32) public hashedBidOf;\n\n    function bid(bytes32 hash) public payable {\n        require(now < endOfBidding, \"Bidding period is over\");\n        require(msg.sender != seller, \"Seller not allowed to bid\");\n\n        hashedBidOf[msg.sender] = hash;\n        numBidders++;\n        // balanceOf[msg.sender] += msg.value;\n        // require(balanceOf[msg.sender] >= reservePrice);\n    }\n\n    function getNumBidders() public view returns(uint) {\n        return numBidders;\n    }\n\n    function reveal(uint amount, uint nonce) public {\n        require(now >= endOfBidding && now < endOfRevealing);\n\n        require(keccak256(abi.encodePacked(amount, nonce)) == hashedBidOf[msg.sender], \"No data present for this seller with given amount\");\n\n        require(!revealed[msg.sender], \"Bidder has already revealed the bid\");\n        revealed[msg.sender] = true;\n\n        if (amount >= highBid) {\n            secondBid = highBid;\n            highBid = amount;\n            highBidder = msg.sender;\n\n        } else if (amount > secondBid) {\n            secondBid = amount;\n       }\n    }\n}",
  "sourcePath": "/home/anchit/IIIT/4-1/dtb/vk/contracts/VickreyAuction.sol",
  "compiler": {
    "name": "solc",
    "version": "0.5.16+commit.9c3226ce.Emscripten.clang"
  },
  "schemaVersion": "3.2.4",
  "updatedAt": "2020-09-09T07:56:54.986Z",
  "devdoc": {
    "methods": {}
  },
  "userdoc": {
    "methods": {}
  }
}